{
  "contractName": "Marketplace",
  "abi": [
    {
      "inputs": [
        {
          "internalType": "uint256",
          "name": "_feePercent",
          "type": "uint256"
        }
      ],
      "stateMutability": "nonpayable",
      "type": "constructor"
    },
    {
      "anonymous": false,
      "inputs": [
        {
          "indexed": false,
          "internalType": "uint256",
          "name": "itemId",
          "type": "uint256"
        },
        {
          "indexed": true,
          "internalType": "address",
          "name": "nft",
          "type": "address"
        },
        {
          "indexed": false,
          "internalType": "uint256",
          "name": "tokenId",
          "type": "uint256"
        },
        {
          "indexed": false,
          "internalType": "uint256",
          "name": "price",
          "type": "uint256"
        },
        {
          "indexed": true,
          "internalType": "address",
          "name": "seller",
          "type": "address"
        },
        {
          "indexed": true,
          "internalType": "address",
          "name": "buyer",
          "type": "address"
        }
      ],
      "name": "Bought",
      "type": "event"
    },
    {
      "anonymous": false,
      "inputs": [
        {
          "indexed": false,
          "internalType": "uint256",
          "name": "itemId",
          "type": "uint256"
        },
        {
          "indexed": true,
          "internalType": "address",
          "name": "nft",
          "type": "address"
        },
        {
          "indexed": false,
          "internalType": "uint256",
          "name": "tokenId",
          "type": "uint256"
        },
        {
          "indexed": false,
          "internalType": "uint256",
          "name": "price",
          "type": "uint256"
        },
        {
          "indexed": true,
          "internalType": "address",
          "name": "seller",
          "type": "address"
        }
      ],
      "name": "Offered",
      "type": "event"
    },
    {
      "inputs": [],
      "name": "feeAccount",
      "outputs": [
        {
          "internalType": "address payable",
          "name": "",
          "type": "address"
        }
      ],
      "stateMutability": "view",
      "type": "function",
      "constant": true
    },
    {
      "inputs": [],
      "name": "feePercent",
      "outputs": [
        {
          "internalType": "uint256",
          "name": "",
          "type": "uint256"
        }
      ],
      "stateMutability": "view",
      "type": "function",
      "constant": true
    },
    {
      "inputs": [],
      "name": "itemCount",
      "outputs": [
        {
          "internalType": "uint256",
          "name": "",
          "type": "uint256"
        }
      ],
      "stateMutability": "view",
      "type": "function",
      "constant": true
    },
    {
      "inputs": [
        {
          "internalType": "uint256",
          "name": "",
          "type": "uint256"
        }
      ],
      "name": "items",
      "outputs": [
        {
          "internalType": "uint256",
          "name": "itemId",
          "type": "uint256"
        },
        {
          "internalType": "contract IERC721",
          "name": "nft",
          "type": "address"
        },
        {
          "internalType": "uint256",
          "name": "tokenId",
          "type": "uint256"
        },
        {
          "internalType": "uint256",
          "name": "price",
          "type": "uint256"
        },
        {
          "internalType": "address payable",
          "name": "seller",
          "type": "address"
        },
        {
          "internalType": "address payable",
          "name": "buyer",
          "type": "address"
        },
        {
          "internalType": "bool",
          "name": "sold",
          "type": "bool"
        }
      ],
      "stateMutability": "view",
      "type": "function",
      "constant": true
    },
    {
      "inputs": [
        {
          "internalType": "contract IERC721",
          "name": "_nft",
          "type": "address"
        },
        {
          "internalType": "uint256",
          "name": "_tokenId",
          "type": "uint256"
        },
        {
          "internalType": "uint256",
          "name": "_price",
          "type": "uint256"
        }
      ],
      "name": "makeItem",
      "outputs": [],
      "stateMutability": "nonpayable",
      "type": "function"
    },
    {
      "inputs": [
        {
          "internalType": "uint256",
          "name": "_itemId",
          "type": "uint256"
        }
      ],
      "name": "purchaseItem",
      "outputs": [],
      "stateMutability": "payable",
      "type": "function",
      "payable": true
    },
    {
      "inputs": [
        {
          "internalType": "uint256",
          "name": "_itemId",
          "type": "uint256"
        }
      ],
      "name": "getTotalPrice",
      "outputs": [
        {
          "internalType": "uint256",
          "name": "",
          "type": "uint256"
        }
      ],
      "stateMutability": "view",
      "type": "function",
      "constant": true
    }
  ],
  "bytecode": "0x60c060405234801561001057600080fd5b506040516108b43803806108b483398101604081905261002f91610040565b60016000553360805260a052610059565b60006020828403121561005257600080fd5b5051919050565b60805160a05161082a61008a6000396000818160fc015261022c015260008181608701526103d7015261082a6000f3fe6080604052600436106100705760003560e01c8063bfb231d21161004e578063bfb231d21461011e578063ca7dd375146101ce578063d38ea5bf146101ee578063fa00afc71461020357600080fd5b806365e17c9d146100755780636bfb0d01146100c65780637fd6f15c146100ea575b600080fd5b34801561008157600080fd5b506100a97f000000000000000000000000000000000000000000000000000000000000000081565b6040516001600160a01b0390911681526020015b60405180910390f35b3480156100d257600080fd5b506100dc60015481565b6040519081526020016100bd565b3480156100f657600080fd5b506100dc7f000000000000000000000000000000000000000000000000000000000000000081565b34801561012a57600080fd5b5061018b610139366004610713565b600260208190526000918252604090912080546001820154928201546003830154600484015460059094015492946001600160a01b03908116949293919281169190811690600160a01b900460ff1687565b604080519788526001600160a01b03968716602089015287019490945260608601929092528316608085015290911660a0830152151560c082015260e0016100bd565b3480156101da57600080fd5b506100dc6101e9366004610713565b610223565b6102016101fc366004610713565b61027d565b005b34801561020f57600080fd5b5061020161021e36600461072c565b6104d6565b600060646102517f000000000000000000000000000000000000000000000000000000000000000082610783565b60008481526002602052604090206003015461026d9190610783565b61027791906107a2565b92915050565b6102856106ba565b600061029082610223565b600083815260026020526040902090915082158015906102b257506001548311155b6102f95760405162461bcd60e51b8152602060048201526013602482015272125d195b48191bd95cc81b9bdd08195e1a5cdd606a1b60448201526064015b60405180910390fd5b813410156103495760405162461bcd60e51b815260206004820152601c60248201527f4e6f7420656e6f75676820657468657220746f2070757263686173650000000060448201526064016102f0565b6005810154600160a01b900460ff16156103945760405162461bcd60e51b815260206004820152600c60248201526b105b1c9958591e481cdbdb1960a21b60448201526064016102f0565b600481015460038201546040516001600160a01b039092169181156108fc0291906000818181858888f193505050501580156103d4573d6000803e3d6000fd5b507f00000000000000000000000000000000000000000000000000000000000000006001600160a01b03166108fc82600301548461041291906107c4565b6040518115909202916000818181858888f1935050505015801561043a573d6000803e3d6000fd5b5060058101805460ff60a01b19339081166001600160a81b031990921691909117600160a01b1790915560048201546001830154600284015460038501546040805189815260208101939093528201526001600160a01b0392831692909116907f8b4c9c8a607d67b321582dd8461041b1dc2ceeca70c8b7f37f8e02095cf2e76d9060600160405180910390a450506104d36001600055565b50565b6104de6106ba565b6000811161052e5760405162461bcd60e51b815260206004820152601f60248201527f5072696365206d7573742062652067726561746572207468616e207a65726f0060448201526064016102f0565b6001805490600061053e836107db565b90915550506040516323b872dd60e01b8152336004820152306024820152604481018390526001600160a01b038416906323b872dd90606401600060405180830381600087803b15801561059157600080fd5b505af11580156105a5573d6000803e3d6000fd5b50506040805160e081018252600180548083526001600160a01b0389811660208086018281528688018c815260608089018d81523360808b01818152600060a08d0181815260c08e018281529b82526002808a52918f90209d518e5596518d8d018054918c166001600160a01b03199283161790559551908d0155915160038c0155905160048b018054918916919094161790925591516005909801805496511515600160a01b026001600160a81b03199097169890951697909717949094179092559254855190815290810189905293840187905291945092507f655a0cf9c8db81512be9a76dc1c5ae5380b8816ce6ad659cd61b715e2999d59a910160405180910390a36106b56001600055565b505050565b60026000540361070c5760405162461bcd60e51b815260206004820152601f60248201527f5265656e7472616e637947756172643a207265656e7472616e742063616c6c0060448201526064016102f0565b6002600055565b60006020828403121561072557600080fd5b5035919050565b60008060006060848603121561074157600080fd5b83356001600160a01b038116811461075857600080fd5b95602085013595506040909401359392505050565b634e487b7160e01b600052601160045260246000fd5b600081600019048311821515161561079d5761079d61076d565b500290565b6000826107bf57634e487b7160e01b600052601260045260246000fd5b500490565b6000828210156107d6576107d661076d565b500390565b6000600182016107ed576107ed61076d565b506001019056fea26469706673582212206a0a0dd299369b6d868e22ed024ebddb26aaac2a9e7c1501c80ec54434eadc7e64736f6c634300080d0033",
  "immutableReferences": {
    "2940": [
      {
        "length": 32,
        "start": 135
      },
      {
        "length": 32,
        "start": 983
      }
    ],
    "2942": [
      {
        "length": 32,
        "start": 252
      },
      {
        "length": 32,
        "start": 556
      }
    ]
  },
  "source": "// SPDX-License-Identifier: MIT\r\npragma solidity ^0.8.0;\r\n\r\nimport \"@openzeppelin/contracts/token/ERC721/extensions/ERC721URIStorage.sol\";\r\nimport \"@openzeppelin/contracts/security/ReentrancyGuard.sol\";\r\n\r\ncontract Marketplace is ReentrancyGuard{\r\n    address payable public immutable feeAccount;\r\n    uint public immutable feePercent;\r\n    uint public itemCount;\r\n\r\n    struct Item{\r\n        uint itemId;\r\n        IERC721 nft;\r\n        uint tokenId;\r\n        uint price;\r\n        address payable seller;\r\n        address payable buyer;\r\n        bool sold;\r\n    }\r\n    event Offered (\r\n        uint itemId,\r\n        address indexed nft,\r\n        uint tokenId,\r\n        uint price,\r\n        address indexed seller\r\n    );\r\n    event Bought(\r\n        uint itemId,\r\n        address indexed nft,\r\n        uint tokenId,\r\n        uint price,\r\n        address indexed seller,\r\n        address indexed buyer\r\n    );\r\n    mapping(uint => Item) public items;\r\n\r\n    constructor(uint _feePercent){\r\n        feeAccount = payable(msg.sender);\r\n        feePercent = _feePercent;\r\n    }\r\n\r\n     function makeItem(IERC721 _nft, uint _tokenId, uint _price) external nonReentrant {\r\n        require(_price > 0, \"Price must be greater than zero\");\r\n        // increment itemCount\r\n        itemCount ++;\r\n        // transfer nft\r\n        _nft.transferFrom(msg.sender, address(this), _tokenId);\r\n        // add new item to items mapping\r\n        items[itemCount] = Item (\r\n            itemCount,\r\n            _nft,\r\n            _tokenId,\r\n            _price,\r\n            payable(msg.sender),\r\n            payable(address(0)),\r\n            false\r\n        );\r\n        // emit Offered event\r\n        emit Offered(\r\n            itemCount,\r\n            address(_nft),\r\n            _tokenId,\r\n            _price,\r\n            msg.sender\r\n        );\r\n    }\r\n\r\n    function purchaseItem(uint _itemId)external payable nonReentrant{\r\n        uint _totalPrice = getTotalPrice(_itemId);\r\n        Item storage item = items[_itemId];\r\n        require(_itemId > 0 && _itemId <= itemCount, \"Item does not exist\");\r\n        require(msg.value >= _totalPrice, \"Not enough ether to purchase\");\r\n        require(!item.sold, \"Already sold\");\r\n        item.seller.transfer(item.price);\r\n        feeAccount.transfer(_totalPrice - item.price);\r\n        item.buyer = payable(msg.sender);\r\n        item.sold = true;\r\n        emit Bought(_itemId, address(item.nft), item.tokenId, item.price, item.seller, msg.sender);\r\n    }\r\n\r\n    function getTotalPrice(uint _itemId)view public returns(uint){\r\n        return (items[_itemId].price*(100*feePercent)/100);\r\n    }\r\n}",
  "sourcePath": "C:\\Users\\Umair\\Downloads\\Learning DApp\\my-nft\\pages\\contracts\\Marketplace.sol",
  "compiler": {
    "name": "solc",
    "version": "0.8.13+commit.abaa5c0e.Emscripten.clang"
  },
  "schemaVersion": "3.4.16",
  "updatedAt": "2024-02-10T16:40:30.344Z",
  "networkType": "ethereum",
  "devdoc": {
    "kind": "dev",
    "methods": {},
    "version": 1
  },
  "userdoc": {
    "kind": "user",
    "methods": {},
    "version": 1
  }
}