{
  "contractName": "Marketplace",
  "abi": [
    {
      "inputs": [
        {
          "internalType": "uint256",
          "name": "_feePercent",
          "type": "uint256"
        }
      ],
      "stateMutability": "nonpayable",
      "type": "constructor"
    },
    {
      "anonymous": false,
      "inputs": [
        {
          "indexed": false,
          "internalType": "uint256",
          "name": "itemId",
          "type": "uint256"
        },
        {
          "indexed": true,
          "internalType": "address",
          "name": "nft",
          "type": "address"
        },
        {
          "indexed": false,
          "internalType": "uint256",
          "name": "tokenId",
          "type": "uint256"
        },
        {
          "indexed": false,
          "internalType": "uint256",
          "name": "price",
          "type": "uint256"
        },
        {
          "indexed": true,
          "internalType": "address",
          "name": "seller",
          "type": "address"
        },
        {
          "indexed": true,
          "internalType": "address",
          "name": "buyer",
          "type": "address"
        }
      ],
      "name": "Bought",
      "type": "event"
    },
    {
      "anonymous": false,
      "inputs": [
        {
          "indexed": false,
          "internalType": "uint256",
          "name": "itemId",
          "type": "uint256"
        },
        {
          "indexed": true,
          "internalType": "address",
          "name": "nft",
          "type": "address"
        },
        {
          "indexed": false,
          "internalType": "uint256",
          "name": "tokenId",
          "type": "uint256"
        },
        {
          "indexed": false,
          "internalType": "uint256",
          "name": "price",
          "type": "uint256"
        },
        {
          "indexed": true,
          "internalType": "address",
          "name": "seller",
          "type": "address"
        }
      ],
      "name": "Offered",
      "type": "event"
    },
    {
      "inputs": [],
      "name": "feeAccount",
      "outputs": [
        {
          "internalType": "address payable",
          "name": "",
          "type": "address"
        }
      ],
      "stateMutability": "view",
      "type": "function",
      "constant": true
    },
    {
      "inputs": [],
      "name": "feePercent",
      "outputs": [
        {
          "internalType": "uint256",
          "name": "",
          "type": "uint256"
        }
      ],
      "stateMutability": "view",
      "type": "function",
      "constant": true
    },
    {
      "inputs": [],
      "name": "itemCount",
      "outputs": [
        {
          "internalType": "uint256",
          "name": "",
          "type": "uint256"
        }
      ],
      "stateMutability": "view",
      "type": "function",
      "constant": true
    },
    {
      "inputs": [
        {
          "internalType": "uint256",
          "name": "",
          "type": "uint256"
        }
      ],
      "name": "items",
      "outputs": [
        {
          "internalType": "uint256",
          "name": "itemId",
          "type": "uint256"
        },
        {
          "internalType": "contract IERC721",
          "name": "nft",
          "type": "address"
        },
        {
          "internalType": "uint256",
          "name": "tokenId",
          "type": "uint256"
        },
        {
          "internalType": "uint256",
          "name": "price",
          "type": "uint256"
        },
        {
          "internalType": "address payable",
          "name": "seller",
          "type": "address"
        },
        {
          "internalType": "address payable",
          "name": "buyer",
          "type": "address"
        },
        {
          "internalType": "bool",
          "name": "sold",
          "type": "bool"
        }
      ],
      "stateMutability": "view",
      "type": "function",
      "constant": true
    },
    {
      "inputs": [
        {
          "internalType": "contract IERC721",
          "name": "_nft",
          "type": "address"
        },
        {
          "internalType": "uint256",
          "name": "_tokenId",
          "type": "uint256"
        },
        {
          "internalType": "uint256",
          "name": "_price",
          "type": "uint256"
        }
      ],
      "name": "makeItem",
      "outputs": [],
      "stateMutability": "nonpayable",
      "type": "function"
    },
    {
      "inputs": [
        {
          "internalType": "uint256",
          "name": "_itemId",
          "type": "uint256"
        }
      ],
      "name": "purchaseItem",
      "outputs": [],
      "stateMutability": "payable",
      "type": "function",
      "payable": true
    },
    {
      "inputs": [
        {
          "internalType": "uint256",
          "name": "_itemId",
          "type": "uint256"
        },
        {
          "internalType": "uint256",
          "name": "price",
          "type": "uint256"
        }
      ],
      "name": "reList",
      "outputs": [],
      "stateMutability": "nonpayable",
      "type": "function"
    },
    {
      "inputs": [
        {
          "internalType": "uint256",
          "name": "_itemId",
          "type": "uint256"
        }
      ],
      "name": "getTotalPrice",
      "outputs": [
        {
          "internalType": "uint256",
          "name": "",
          "type": "uint256"
        }
      ],
      "stateMutability": "view",
      "type": "function",
      "constant": true
    }
  ],
  "bytecode": "0x60c060405234801561001057600080fd5b50604051610a41380380610a4183398101604081905261002f91610040565b60016000553360805260a052610059565b60006020828403121561005257600080fd5b5051919050565b60805160a0516109b661008b6000396000818161010701526102570152600081816092015261054101526109b66000f3fe60806040526004361061007b5760003560e01c8063ca7dd3751161004e578063ca7dd375146101d9578063ca7ebd43146101f9578063d38ea5bf1461021b578063fa00afc71461022e57600080fd5b806365e17c9d146100805780636bfb0d01146100d15780637fd6f15c146100f5578063bfb231d214610129575b600080fd5b34801561008c57600080fd5b506100b47f000000000000000000000000000000000000000000000000000000000000000081565b6040516001600160a01b0390911681526020015b60405180910390f35b3480156100dd57600080fd5b506100e760015481565b6040519081526020016100c8565b34801561010157600080fd5b506100e77f000000000000000000000000000000000000000000000000000000000000000081565b34801561013557600080fd5b5061019661014436600461087d565b600260208190526000918252604090912080546001820154928201546003830154600484015460059094015492946001600160a01b03908116949293919281169190811690600160a01b900460ff1687565b604080519788526001600160a01b03968716602089015287019490945260608601929092528316608085015290911660a0830152151560c082015260e0016100c8565b3480156101e557600080fd5b506100e76101f436600461087d565b61024e565b34801561020557600080fd5b50610219610214366004610896565b6102a8565b005b61021961022936600461087d565b6103ec565b34801561023a57600080fd5b506102196102493660046108b8565b610640565b6000606461027c7f00000000000000000000000000000000000000000000000000000000000000008261090f565b600084815260026020526040902060030154610298919061090f565b6102a2919061092e565b92915050565b6102b0610824565b600081116103055760405162461bcd60e51b815260206004820152601f60248201527f5072696365206d7573742062652067726561746572207468616e207a65726f0060448201526064015b60405180910390fd5b60008211801561031757506001548211155b6103595760405162461bcd60e51b8152602060048201526013602482015272125d195b48191bd95cc81b9bdd08195e1a5cdd606a1b60448201526064016102fc565b60008281526002602052604090206005810154600160a01b900460ff166103b25760405162461bcd60e51b815260206004820152600d60248201526c4e6f7420736f6c64206f6e636560981b60448201526064016102fc565b600381018290556004810180546001600160a01b0319163317905560050180546001600160a81b03191690556103e86001600055565b5050565b6103f4610824565b60006103ff8261024e565b6000838152600260205260409020909150821580159061042157506001548311155b6104635760405162461bcd60e51b8152602060048201526013602482015272125d195b48191bd95cc81b9bdd08195e1a5cdd606a1b60448201526064016102fc565b813410156104b35760405162461bcd60e51b815260206004820152601c60248201527f4e6f7420656e6f75676820657468657220746f2070757263686173650000000060448201526064016102fc565b6005810154600160a01b900460ff16156104fe5760405162461bcd60e51b815260206004820152600c60248201526b105b1c9958591e481cdbdb1960a21b60448201526064016102fc565b600481015460038201546040516001600160a01b039092169181156108fc0291906000818181858888f1935050505015801561053e573d6000803e3d6000fd5b507f00000000000000000000000000000000000000000000000000000000000000006001600160a01b03166108fc82600301548461057c9190610950565b6040518115909202916000818181858888f193505050501580156105a4573d6000803e3d6000fd5b5060058101805460ff60a01b19339081166001600160a81b031990921691909117600160a01b1790915560048201546001830154600284015460038501546040805189815260208101939093528201526001600160a01b0392831692909116907f8b4c9c8a607d67b321582dd8461041b1dc2ceeca70c8b7f37f8e02095cf2e76d9060600160405180910390a4505061063d6001600055565b50565b610648610824565b600081116106985760405162461bcd60e51b815260206004820152601f60248201527f5072696365206d7573742062652067726561746572207468616e207a65726f0060448201526064016102fc565b600180549060006106a883610967565b90915550506040516323b872dd60e01b8152336004820152306024820152604481018390526001600160a01b038416906323b872dd90606401600060405180830381600087803b1580156106fb57600080fd5b505af115801561070f573d6000803e3d6000fd5b50506040805160e081018252600180548083526001600160a01b0389811660208086018281528688018c815260608089018d81523360808b01818152600060a08d0181815260c08e018281529b82526002808a52918f90209d518e5596518d8d018054918c166001600160a01b03199283161790559551908d0155915160038c0155905160048b018054918916919094161790925591516005909801805496511515600160a01b026001600160a81b03199097169890951697909717949094179092559254855190815290810189905293840187905291945092507f655a0cf9c8db81512be9a76dc1c5ae5380b8816ce6ad659cd61b715e2999d59a910160405180910390a361081f6001600055565b505050565b6002600054036108765760405162461bcd60e51b815260206004820152601f60248201527f5265656e7472616e637947756172643a207265656e7472616e742063616c6c0060448201526064016102fc565b6002600055565b60006020828403121561088f57600080fd5b5035919050565b600080604083850312156108a957600080fd5b50508035926020909101359150565b6000806000606084860312156108cd57600080fd5b83356001600160a01b03811681146108e457600080fd5b95602085013595506040909401359392505050565b634e487b7160e01b600052601160045260246000fd5b6000816000190483118215151615610929576109296108f9565b500290565b60008261094b57634e487b7160e01b600052601260045260246000fd5b500490565b600082821015610962576109626108f9565b500390565b600060018201610979576109796108f9565b506001019056fea2646970667358221220e1f511efd25fb1fd6f30f2279ed3314225b2a565780a87c8ab9f0f5ba4de42f464736f6c634300080d0033",
  "immutableReferences": {
    "2940": [
      {
        "length": 32,
        "start": 146
      },
      {
        "length": 32,
        "start": 1345
      }
    ],
    "2942": [
      {
        "length": 32,
        "start": 263
      },
      {
        "length": 32,
        "start": 599
      }
    ]
  },
  "source": "// SPDX-License-Identifier: MIT\r\npragma solidity ^0.8.0;\r\n\r\nimport \"@openzeppelin/contracts/token/ERC721/extensions/ERC721URIStorage.sol\";\r\nimport \"@openzeppelin/contracts/security/ReentrancyGuard.sol\";\r\n\r\ncontract Marketplace is ReentrancyGuard{\r\n    address payable public immutable feeAccount;\r\n    uint public immutable feePercent;\r\n    uint public itemCount;\r\n\r\n    struct Item{\r\n        uint itemId;\r\n        IERC721 nft;\r\n        uint tokenId;\r\n        uint price;\r\n        address payable seller;\r\n        address payable buyer;\r\n        bool sold;\r\n    }\r\n    event Offered (\r\n        uint itemId,\r\n        address indexed nft,\r\n        uint tokenId,\r\n        uint price,\r\n        address indexed seller\r\n    );\r\n    event Bought(\r\n        uint itemId,\r\n        address indexed nft,\r\n        uint tokenId,\r\n        uint price,\r\n        address indexed seller,\r\n        address indexed buyer\r\n    );\r\n    mapping(uint => Item) public items;\r\n\r\n    constructor(uint _feePercent){\r\n        feeAccount = payable(msg.sender);\r\n        feePercent = _feePercent;\r\n    }\r\n\r\n     function makeItem(IERC721 _nft, uint _tokenId, uint _price) external nonReentrant {\r\n        require(_price > 0, \"Price must be greater than zero\");\r\n        // increment itemCount\r\n        itemCount ++;\r\n        // transfer nft\r\n        _nft.transferFrom(msg.sender, address(this), _tokenId);\r\n        // add new item to items mapping\r\n        items[itemCount] = Item (\r\n            itemCount,\r\n            _nft,\r\n            _tokenId,\r\n            _price,\r\n            payable(msg.sender),\r\n            payable(address(0)),\r\n            false\r\n        );\r\n        // emit Offered event\r\n        emit Offered(\r\n            itemCount,\r\n            address(_nft),\r\n            _tokenId,\r\n            _price,\r\n            msg.sender\r\n        );\r\n    }\r\n\r\n    function purchaseItem(uint _itemId)external payable nonReentrant{\r\n        uint _totalPrice = getTotalPrice(_itemId);\r\n        Item storage item = items[_itemId];\r\n        require(_itemId > 0 && _itemId <= itemCount, \"Item does not exist\");\r\n        require(msg.value >= _totalPrice, \"Not enough ether to purchase\");\r\n        require(!item.sold, \"Already sold\");\r\n        item.seller.transfer(item.price);\r\n        feeAccount.transfer(_totalPrice - item.price);\r\n        item.buyer = payable(msg.sender);\r\n        item.sold = true;\r\n        emit Bought(_itemId, address(item.nft), item.tokenId, item.price, item.seller, msg.sender);\r\n    }\r\n\r\n    function reList(uint _itemId, uint price) external nonReentrant{\r\n        require(price > 0, \"Price must be greater than zero\");\r\n        require(_itemId > 0 && _itemId <= itemCount, \"Item does not exist\");\r\n        Item storage item = items[_itemId];\r\n        require(item.sold, \"Not sold once\");\r\n        item.price = price;\r\n        item.seller = payable(msg.sender);\r\n        item.buyer = payable(address(0));\r\n        item.sold = false;\r\n    }\r\n\r\n    function getTotalPrice(uint _itemId)view public returns(uint){\r\n        return (items[_itemId].price*(100*feePercent)/100);\r\n    }\r\n}",
  "sourcePath": "C:\\Users\\Umair\\Downloads\\Learning DApp\\my-nft\\pages\\contracts\\Marketplace.sol",
  "compiler": {
    "name": "solc",
    "version": "0.8.13+commit.abaa5c0e.Emscripten.clang"
  },
  "schemaVersion": "3.4.16",
  "updatedAt": "2024-02-13T15:58:51.657Z",
  "networkType": "ethereum",
  "devdoc": {
    "kind": "dev",
    "methods": {},
    "version": 1
  },
  "userdoc": {
    "kind": "user",
    "methods": {},
    "version": 1
  }
}